:100000000C9446000C9465000C9465000C948F00D1
:100010000C9465000C9465000C9465000C946500CC
:100020000C9465000C9465000C9465000C946500BC
:100030000C9465000C9465000C9465000C946500AC
:100040000C9467000C9465000C9465000C9465009A
:100050000C9465000C9465000C9465000C9465008C
:100060000C9465000C9465000C9465000C9465007C
:100070000C9465000C9465000C9465000C9465006C
:100080000C9465000C9465000C94650011241FBE4F
:10009000CFEFD0E1DEBFCDBF11E0A0E0B1E0E6E9F7
:1000A000F1E000E00BBF02C007900D92A430B10751
:1000B000D9F711E0A4E0B1E001C01D92A630B1076C
:1000C000E1F70E94AE000C94C9000C9400001F924E
:1000D0000F920FB60F9211242F938F939F9388B393
:1000E000282F8093040110920501809102019091C4
:1000F0000301892B39F088B3869588BB20FF07C0A0
:10010000C79A05C088B3880F88BB27FDC09A9F9106
:100110008F912F910F900FBE0F901F9018951F92E7
:100120000F920FB60F9211248F939F93809102012B
:1001300090910301892B29F0109203011092020182
:1001400006C081E090E090930301809302019F91AB
:100150008F910F900FBE0F901F9018958FEF87BB58
:1001600011BA87E083BF87B7816087BF80916A003B
:10017000806280936A0080916A008F7E80936A001B
:1001800084E089BF88B390910001892B88BB789463
:06019000FFCFF894FFCF41
:040196000F00010055
:00000001FF
